{
  "_format": "hh-sol-artifact-1",
  "contractName": "Voting",
  "sourceName": "tmp/hardhat/contracts/Voting.sol",
  "abi": [
    {
      "inputs": [
        {
          "internalType": "string",
          "name": "userId",
          "type": "string"
        },
        {
          "internalType": "string",
          "name": "eventId",
          "type": "string"
        },
        {
          "internalType": "string",
          "name": "candidateId",
          "type": "string"
        }
      ],
      "name": "castVote",
      "outputs": [],
      "stateMutability": "nonpayable",
      "type": "function"
    },
    {
      "inputs": [
        {
          "internalType": "bytes32",
          "name": "",
          "type": "bytes32"
        }
      ],
      "name": "hasVoted",
      "outputs": [
        {
          "internalType": "bool",
          "name": "",
          "type": "bool"
        }
      ],
      "stateMutability": "view",
      "type": "function"
    },
    {
      "inputs": [
        {
          "internalType": "bytes32",
          "name": "transactionHash",
          "type": "bytes32"
        }
      ],
      "name": "isTransactionHashStored",
      "outputs": [
        {
          "internalType": "bool",
          "name": "",
          "type": "bool"
        }
      ],
      "stateMutability": "view",
      "type": "function"
    },
    {
      "inputs": [
        {
          "internalType": "bytes32",
          "name": "",
          "type": "bytes32"
        }
      ],
      "name": "votes",
      "outputs": [
        {
          "internalType": "string",
          "name": "userId",
          "type": "string"
        },
        {
          "internalType": "string",
          "name": "eventId",
          "type": "string"
        },
        {
          "internalType": "string",
          "name": "candidateId",
          "type": "string"
        }
      ],
      "stateMutability": "view",
      "type": "function"
    }
  ],
  "bytecode": "0x6080604052348015600f57600080fd5b50610d9c8061001f6000396000f3fe608060405234801561001057600080fd5b506004361061004c5760003560e01c80631b4613cb146100515780632b38cd9614610081578063cbb69343146100b3578063cf95a070146100e3575b600080fd5b61006b60048036038101906100669190610568565b6100ff565b60405161007891906105b0565b60405180910390f35b61009b60048036038101906100969190610568565b61011f565b6040516100aa9392919061065b565b60405180910390f35b6100cd60048036038101906100c89190610568565b6102e1565b6040516100da91906105b0565b60405180910390f35b6100fd60048036038101906100f891906107dc565b610359565b005b60016020528060005260406000206000915054906101000a900460ff1681565b6000602052806000526040600020600091509050806000018054610142906108b2565b80601f016020809104026020016040519081016040528092919081815260200182805461016e906108b2565b80156101bb5780601f10610190576101008083540402835291602001916101bb565b820191906000526020600020905b81548152906001019060200180831161019e57829003601f168201915b5050505050908060010180546101d0906108b2565b80601f01602080910402602001604051908101604052809291908181526020018280546101fc906108b2565b80156102495780601f1061021e57610100808354040283529160200191610249565b820191906000526020600020905b81548152906001019060200180831161022c57829003601f168201915b50505050509080600201805461025e906108b2565b80601f016020809104026020016040519081016040528092919081815260200182805461028a906108b2565b80156102d75780601f106102ac576101008083540402835291602001916102d7565b820191906000526020600020905b8154815290600101906020018083116102ba57829003601f168201915b5050505050905083565b60008060001b8203610328576040517f08c379a000000000000000000000000000000000000000000000000000000000815260040161031f9061092f565b60405180910390fd5b600080600080858152602001908152602001600020600001805461034b906108b2565b905011905080915050919050565b60008383836040516020016103709392919061098b565b6040516020818303038152906040528051906020012090506000848460405160200161039d9291906109bc565b604051602081830303815290604052805190602001209050600080600084815260200190815260200160002060000180546103d7906108b2565b905014610419576040517f08c379a000000000000000000000000000000000000000000000000000000000815260040161041090610a2c565b60405180910390fd5b6001600082815260200190815260200160002060009054906101000a900460ff161561047a576040517f08c379a000000000000000000000000000000000000000000000000000000000815260040161047190610abe565b60405180910390fd5b60405180606001604052808681526020018581526020018481525060008084815260200190815260200160002060008201518160000190816104bc9190610c94565b5060208201518160010190816104d29190610c94565b5060408201518160020190816104e89190610c94565b50905050600180600083815260200190815260200160002060006101000a81548160ff0219169083151502179055505050505050565b6000604051905090565b600080fd5b600080fd5b6000819050919050565b61054581610532565b811461055057600080fd5b50565b6000813590506105628161053c565b92915050565b60006020828403121561057e5761057d610528565b5b600061058c84828501610553565b91505092915050565b60008115159050919050565b6105aa81610595565b82525050565b60006020820190506105c560008301846105a1565b92915050565b600081519050919050565b600082825260208201905092915050565b60005b838110156106055780820151818401526020810190506105ea565b60008484015250505050565b6000601f19601f8301169050919050565b600061062d826105cb565b61063781856105d6565b93506106478185602086016105e7565b61065081610611565b840191505092915050565b600060608201905081810360008301526106758186610622565b905081810360208301526106898185610622565b9050818103604083015261069d8184610622565b9050949350505050565b600080fd5b600080fd5b7f4e487b7100000000000000000000000000000000000000000000000000000000600052604160045260246000fd5b6106e982610611565b810181811067ffffffffffffffff82111715610708576107076106b1565b5b80604052505050565b600061071b61051e565b905061072782826106e0565b919050565b600067ffffffffffffffff821115610747576107466106b1565b5b61075082610611565b9050602081019050919050565b82818337600083830152505050565b600061077f61077a8461072c565b610711565b90508281526020810184848401111561079b5761079a6106ac565b5b6107a684828561075d565b509392505050565b600082601f8301126107c3576107c26106a7565b5b81356107d384826020860161076c565b91505092915050565b6000806000606084860312156107f5576107f4610528565b5b600084013567ffffffffffffffff8111156108135761081261052d565b5b61081f868287016107ae565b935050602084013567ffffffffffffffff8111156108405761083f61052d565b5b61084c868287016107ae565b925050604084013567ffffffffffffffff81111561086d5761086c61052d565b5b610879868287016107ae565b9150509250925092565b7f4e487b7100000000000000000000000000000000000000000000000000000000600052602260045260246000fd5b600060028204905060018216806108ca57607f821691505b6020821081036108dd576108dc610883565b5b50919050565b7f5472616e73616374696f6e206861736820697320656d70747900000000000000600082015250565b60006109196019836105d6565b9150610924826108e3565b602082019050919050565b600060208201905081810360008301526109488161090c565b9050919050565b600081905092915050565b6000610965826105cb565b61096f818561094f565b935061097f8185602086016105e7565b80840191505092915050565b6000610997828661095a565b91506109a3828561095a565b91506109af828461095a565b9150819050949350505050565b60006109c8828561095a565b91506109d4828461095a565b91508190509392505050565b7f566f746520616c72656164792065786973747300000000000000000000000000600082015250565b6000610a166013836105d6565b9150610a21826109e0565b602082019050919050565b60006020820190508181036000830152610a4581610a09565b9050919050565b7f557365722068617320616c726561647920766f74656420696e2074686973206560008201527f76656e7400000000000000000000000000000000000000000000000000000000602082015250565b6000610aa86024836105d6565b9150610ab382610a4c565b604082019050919050565b60006020820190508181036000830152610ad781610a9b565b9050919050565b60008190508160005260206000209050919050565b60006020601f8301049050919050565b600082821b905092915050565b600060088302610b407fffffffffffffffffffffffffffffffffffffffffffffffffffffffffffffffff82610b03565b610b4a8683610b03565b95508019841693508086168417925050509392505050565b6000819050919050565b6000819050919050565b6000610b91610b8c610b8784610b62565b610b6c565b610b62565b9050919050565b6000819050919050565b610bab83610b76565b610bbf610bb782610b98565b848454610b10565b825550505050565b600090565b610bd4610bc7565b610bdf818484610ba2565b505050565b5b81811015610c0357610bf8600082610bcc565b600181019050610be5565b5050565b601f821115610c4857610c1981610ade565b610c2284610af3565b81016020851015610c31578190505b610c45610c3d85610af3565b830182610be4565b50505b505050565b600082821c905092915050565b6000610c6b60001984600802610c4d565b1980831691505092915050565b6000610c848383610c5a565b9150826002028217905092915050565b610c9d826105cb565b67ffffffffffffffff811115610cb657610cb56106b1565b5b610cc082546108b2565b610ccb828285610c07565b600060209050601f831160018114610cfe5760008415610cec578287015190505b610cf68582610c78565b865550610d5e565b601f198416610d0c86610ade565b60005b82811015610d3457848901518255600182019150602085019450602081019050610d0f565b86831015610d515784890151610d4d601f891682610c5a565b8355505b6001600288020188555050505b50505050505056fea2646970667358221220d32dd91a16b0f78ed0e25a3bfa16a0cccbed8cb5136241861c5711ccc47d5a0764736f6c634300081b0033",
  "linkReferences": {},
  "deployedLinkReferences": {}
}